:030000000208569D
:0C085600787FE4F6D8FD75814C0206673F
:1007F400E4F59275910775BC8000000000000000CC
:050804000075DE20225A
:1007550075BC8243BC40E5BC30E5FB53BCDFAFBD97
:10076500EFFEADBE7C00E42DF511EC3EF51000006A
:0A077500000000000000FEAF11229A
:10077F0075BC8143BC40E5BC30E5FB53BCDFAFBD6E
:10078F00EFFEADBE7C00E42DF511EC3EF510000040
:0A079F00000000000000FEAF112270
:1007A90075BC8043BC40E5BC30E5FB53BCDFAFBD45
:1007B900EFFEADBE7C00E42DF511EC3EF510000016
:0A07C900000000000000FEAF112246
:10066700120862D2001208091200031206BF12070D
:10067700F4C2EC30003D30ECFA1208621208623026
:10068700ECF1C2EF75240075250075260E7527005D
:10069700752800752908752A00752B00752C0A7BAB
:1006A700007A00790C1203C3C200D2EFD2AF30EC4C
:0806B700C280FB2000BD80FBA6
:06000300E4F5CCF5CB2270
:10080900538E7F5389F0758AE0758CB1C28DD28C75
:03081900D2A9223F
:03000B00020532B9
:10053200C0E0C0F0C083C082C0D075D000C000C08F
:0D05420001C002C003C004C005C006C00710
:10054F00120755AC06AD07E41202B1C004C005C0D6
:10055F0006C007AC0CAD0DE41202B1A804A905AAA0
:10056F0006AB07D007D006D005D00412020FE4FB6C
:10057F00FA79C878421201068F408E3F8D3E8C3D2E
:10058F0012086D1207A9AC06AD07E41202B1C00440
:10059F00C005C006C007AC0EAD0FE41202B1A8042F
:1005AF00A905AA06AB07D007D006D005D0041202C2
:1005BF000FE4FBFA79C878421201068F448E438DFF
:1005CF00428C41AB44AA43A942A841AF40AE3FADD4
:1005DF003EAC3D120011120849E4FBFAF9784212C1
:1005EF00020FC004C005C006C007AB44AA43A9420E
:1005FF00A841AF40AE3FAD3EAC3D120011D003D08D
:10060F0002D001D0001201068F3C8E3B8D3A8C39FF
:10061F007548007547007546C075453FAF48AE47F2
:10062F00AD46AC451207D3AF3CAE3BAD3AAC391239
:0D063F00070EAF48AE47AD46AC451207D3DD
:10064C00D007D006D005D004D003D002D001D00002
:0B065C00D0D0D082D083D0F0D0E032AC
:1006BF0043BA8090FFF2740FF090FFF07475F0A3BF
:1006CF007430F090FF00E4F0A3F0A3F0A3F0A37454
:1006DF0080F090FF107408F0A374CAF0A3E4F0A3A5
:1006EF00F0A37480F090FF207408F0A374CAF0A3F5
:0F06FF00E4F0A3F0A37480F053BA7F43FE80228F
:0F081C0043BA8090FF00EEF0A3EFF053BA7F22B3
:0F082B0043BA8090FF10EEF0A3EFF053BA7F2294
:0F083A0043BA8090FF20EEF0A3EFF053BA7F2275
:0807D3008F4C8E4B8D4A8C49BE
:1007DB007F007E307D827C45AB4CAA4BA94AA84951
:0907EB001201061202EA02082BB9
:08070E008F4C8E4B8D4A8C4983
:10071600E4FFFE7D807C41AB4CAA4BA94AA8491256
:1007260001061202EAC374CA9FFF74089EFED3EF45
:1007360094B8EE6480948B40047E0B7FB8C3EF942C
:0F074600DCEE6480948550047E057FDC02083A67
:06087700E4FFFE02082B65
:0603C3008B218A22892330
:1003C900E4F531F532F533F534F535F536F537F52C
:1003D90038F5F0120396AB24AA25A926E4F5F01204
:1003E9000396AB27AA28A929E4F5F0120396AB2AAC
:1003F900AA2BA92CE4F5F0120396752F007530018C
:100409001207558E2D8F2E12086D1207A9D3E52ECE
:100419009532E52D9531400A852D31852E328E375D
:100429008F38D3EF9534EE9533400A8E338F348568
:100439002D35852E361208620530E5307002052FFC
:10044900D394E8E52F940340B7AB21AA22A923E569
:10045900318532F0120396AB24AA25A926E5338506
:1004690034F0120396AB27AA28A929E5358536F079
:10047900120396AB2AAA2BA92CE5378538F012036B
:1004890096AB27AA28A92912036BFDACF0E4120246
:10049900B1E4FBFA79C87842120106C004C005C06C
:1004A90006C007AB21AA22A92312036BFDACF0E415
:1004B9001202B1A804A905AA06AB07D007D006D035
:1004C90005D00412020F1202EAAB27AA28A929EEC5
:1004D9008FF0120396AB2AAA2BA92C12036BFDAC41
:1004E900F0E41202B1E4FBFA79C87842120106C0BD
:1004F90004C005C006C007AB24AA25A92612036BB0
:10050900FDACF0E41202B1A804A905AA06AB07D014
:1005190007D006D005D00412020F1202EAAB2AAAAC
:090529002BA92CEE8FF0020396C1
:0A08620000007F9C7ED5DEFEDFFC67
:01086C002269
:09086D00007F027E8CDEFEDFFC40
:01087600225F
:10000E00020356E86480F8E933E83360110460F0C7
:10001E00ED33EC337009E8FCE9FDEAFEEBFF220458
:10002E0060DED3EB9FEA9EE99DE8C2E78CF0C2F753
:10003E0095F0400CE8CCF8E9CDF9EACEFAEBCFFB1F
:10004E0012032185D0F05804700320D5B3E8047054
:10005E00075002B2D502036092D5EC0460F7E4CCEF
:10006E00C0E0C398F8603B94186008400DD0E0FBE8
:10007E00020338E4FBFAC9FC8028E830E406E4C940
:10008E00FBE4CAFCE830E305E4C9CACBFCE854073C
:10009E006010F8C3E913F9EA13FAEB13FBEC13FC47
:1000AE00D8F130F52FC3E49CFCEF9BFFEE9AFEEDEA
:1000BE0099FDD0E0FBEF4E4D4C701222DB03020394
:1000CE005DEC2CFCEF33FFEE33FEED33FDED30E750
:1000DE00EB020338EF2BFFEE3AFEED39FDD0E0FBDD
:1000EE0050130BBB0003020360ED13FDEE13FEEF86
:0800FE0013FFEC13FC020338B0
:10010600EC4D6011E8497017ED33EC3304600DE4F3
:10011600FCFFFEFD22E933E8330470F802035612B1
:10012600032158046009E4CC2481500628500902B2
:10013600036028400302035DC0E0EB4A7044B980C7
:1001460006D0E0FB02034CEF4E701CBD8008EBFFAF
:10015600EAFEE9FD80EBE98DF0A4FEE5F00201EF91
:10016600E9CDF9EAFEEBFFEF89F0A4FCE5F0CE89D4
:10017600F0A42EFFE435F0CD89F0A42DFEE435F091
:100186008067EF4E7005BD80D780C3EF8BF0A4ACBF
:10019600F0EE8BF0A42CFCE435F0F8EF8AF0A42CFA
:1001A600E5F038FCE433CB8DF0A42CFCE5F03BF80D
:1001B600EE8AF0A42CFCE5F038F8E433CF89F0A4FD
:1001C6002CFCE5F038CF3400CE89F0A42FFFE5F003
:1001D6003EFEE433C98DF0A42EFEE5F039CD8AF05B
:1001E600A42FFFE5F03EFEE43DFD33D0E0FB5007D3
:1001F6000BBB000F020360EC2CFCEF33FFEE33FE6B
:06020600ED33FD02033898
:10020C00020360EC5D046005E859047003020356B8
:10021C00120321580460F6EC4860F2EC7004FDFE09
:10022C00FF22C860DB2481C85009C39860025006C5
:10023C0002035D9850CAF582E9294B4A7005AB82DE
:10024C0002034C75F0007C1A7880C3EF9BEE9AED9C
:10025C0099400DC3EF9BFFEE9AFEED99FDE842F03D
:10026C00DC23ACF0D0E0FFD0E0FED0E0FDAB822090
:10027C00E7101BEB60BAEC2CFCEF33FFEE33FEED1A
:10028C0033FD020338E803F830E705C0F075F000E1
:10029C00EF2FFFEE33FEED33FD40B830E7C280AAFE
:1002AC0075F020800E75F010800575F0087D007ECD
:1002BC00007F003392D530D5031203B5EC334010D8
:1002CC00EF33FFEE33FEED33FDEC33FCD5F0ED22D6
:0E02DC00E5F0247EA2D513CC92E7CDCEFF2212
:1002EA00EDD2E7CD33EC3392D524814006E4FFFE0C
:1002FA00FDFC22FCE4CFCECDCC24E0501174FF806B
:10030A00EDC3CC13CCCD13CDCE13CECF13CF047007
:07031A00F030D5DE0203B54F
:0D084900ED33EC3360065004EC6480FC22BB
:10032100E9D2E7C933E833F892D5EDD2E7CD33EC22
:0703310033FC5002B2D5229B
:10033800EC30E7100FBF000C0EBE00080DBD000426
:100348000BEB6014A2D5EB13FCED92E7FD2274FFD2
:10035800FCFDFEFF22E480F8A2D574FF13FC7D802B
:03036800E480EF3F
:10036B00BB010A89828A83E0F5F0A3E0225006875D
:10037B00F009E71922BBFE07E3F5F009E31922891F
:0B038B00828A83E493F5F07401932252
:10039600BB010A89828A83F0E5F0A3F0225006F7B2
:0F03A60009A7F01922BBFE06F3E5F009F31922AF
:0E03B500C3E49FFFE49EFEE49DFDE49CFC2259
:00000001FF
